:1000000000000220A90D0000410E00007F0E00003C
:10001000410E0000410E0000410E000000000000F3
:100020000000000000000000000000007D10000043
:10003000410E00000000000039100000690F0000B0
:10004000410E0000410E0000410E0000410E000074
:10005000410E0000410E0000410E0000410E000064
:10006000410E0000410E0000410E0000410E000054
:10007000410E0000410E0000410E0000410E000044
:100400000348044B834202D0034B03B118477047A3
:100410005C0000205C000020000000000548064B46
:100420001B1AD90F01EBA301491002D0034B03B1F2
:10043000184770475C0000205C00002000000000AE
:1004400010B5064C237843B9FFF7DAFF044B13B11C
:100450000448AFF300800123237010BD600000202A
:1004600000000000C825000008B5054B1BB1054978
:100470000548AFF30080BDE80840FFF7CFBF00BFDD
:100480000000000064000020C8250000A3F5803AA9
:10049000704700BF174B002B08BF134B9D46FFF75B
:1004A000F5FF00218B460F461348144A121A01F03B
:1004B00059FF0E4B002B00D098470D4B002B00D05E
:1004C00098470020002104000D000D48002802D0AC
:1004D0000C48AFF3008001F01BFF2000290000F062
:1004E000FFFB01F003FF00BF000008000000000058
:1004F000000000000000022060000020D802002060
:10050000000000000000000080B58AB000AF87ED59
:10051000020B87ED001BD7E90223C7E9082397EDFB
:10052000007BB5EE407BF1EE10FA0CD197ED027B2B
:10053000B5EE407BF1EE10FA40F08E80D7E9002353
:10054000C7E9082388E097ED027BB5EE407BF1EE2A
:1005500010FA08D19FED465B97ED006B85EE067BA8
:1005600087ED087B78E097ED001B97ED020B00F01C
:10057000CFFD87ED080B97ED087BB5EE407BF1EEE4
:1005800010FA0CBF01230023FB77FB7F83F00103EC
:10059000DBB2002B36D097ED000B00F041FFB0EE40
:1005A000406B97ED007BB4EEC67BF1EE10FA29DDCF
:1005B00097ED025B97ED006B85EE067BB0EEC77B97
:1005C00087ED047B97ED047BB6EE006B37EE067B80
:1005D000B0EE470B00F024FFB0EE406B97ED047BCC
:1005E00037EE467BB0EEC76B97ED047B9FED225B49
:1005F00027EE057BB4EEC76BF1EE10FA94BF012332
:100600000023FB77FB7F002B06D04FF000024FF05A
:100610000003C7E908231FE097ED027BB5EEC07B1E
:10062000F1EE10FA4CBF01230023DAB297ED007B04
:10063000B5EEC07BF1EE10FA4CBF01230023DBB214
:100640005340DBB2002B07D097ED086B97ED007B92
:1006500036EE077B87ED087BD7E9082343EC172BA1
:10066000B0EE470B2837BD4680BD00BFAFF300801A
:100670000000000000000000000000000000B03C8E
:1006800080B52DED028B9AB000AF874B93ED0A6BCE
:100690009FED7D5B86EE057B844B83ED1C7B834B5E
:1006A00093ED1C8B814B93ED1C7BB0EE005B87EED2
:1006B000056BB0EE460B00F0B3FEB0EE407B37EEBC
:1006C000077B38EE477B9FED726B27EE066B764B10
:1006D00093ED067B36EE077B9FED6F1BB0EE470B6D
:1006E000FFF712FF87ED060B97ED060B00F038FDC4
:1006F00087ED140B97ED060B01F06EF887ED120BEA
:100700004FF000024FF00003C7E90A234FF0000248
:100710004FF00003C7E918234FF000024FF0000329
:10072000C7E916236149D7E91223C1E9002397EDF0
:10073000147BB1EE477B5D4B83ED067B5B494FF04D
:1007400000024FF00003C1E90C235849D7E91423F4
:10075000C1E902235549D7E91223C1E908235349C6
:100760004FF000024FF00003C1E90E230023FB63AA
:100770005AE04D4AFB6BDB001344D3E900234B499D
:10078000C1E91C23FA6B13465B001344484ADB00A3
:10079000134493ED006B454B93ED1C7B26EE077BDA
:1007A00097ED0A6B36EE077B87ED0A7BFA6B1346F3
:1007B0005B00134401333E4ADB00134493ED006BAE
:1007C0003A4B93ED1C7B26EE077B97ED186B36EECC
:1007D000077B87ED187BFA6B13465B0013440233EB
:1007E0007B60334A7B68DB00134493ED006B2F4B37
:1007F00093ED1C7B26EE077B97ED166B36EE077BA1
:1008000087ED167B2B4AFB6B134493F9003007EE00
:10081000903AB8EEE77B254A7B68DB00134483ED12
:10082000007BFB6B0133FB63FB6B022BA1DD97EDC0
:100830000A7B9FED1B6B27EE067B1C4B83ED127B27
:100840004FF000024FF00003C7E90C2397ED187B2F
:100850009FED136B27EE067B144B83ED147B4FF05B
:1008600000024FF00003C7E9082397ED167B9FEDC8
:100870000C6B27EE067B0D4B83ED167B0023FB6391
:1008800050E000BFAFF30080FA7E6ABC7493B83FBB
:10089000182D4454FB210940182D4454FB211940C4
:1008A000555555555555E53F08010020800000205D
:1008B00090230000D8230000994AFB6B0933DB002A
:1008C0001344D3E900239649C1E91C23FA6B13466C
:1008D0005B001344924ADB00134493ED006B904B92
:1008E00093ED1C7B26EE077B97ED0C6B36EE077BBA
:1008F00087ED0C7BFA6B13465B0013440133884A87
:10090000DB00134493ED006B854B93ED1C7B26EECF
:10091000077B97ED086B36EE077B87ED087BFB6B5B
:100920000133FB63FB6B022BC6DD9FED6F6B97ED15
:100930000C7B36EE477B9FED6E6B27EE067B9FEDC3
:100940006E6B27EE067B87ED167B754B93ED187B60
:1009500097ED166B36EE077B87ED0A7B9FED626B9A
:1009600097ED0C7B36EE477B9FED656B27EE066BB4
:1009700097ED0A7B36EE077B6A4B83ED087B6A4B6B
:1009800093ED086B97ED087B36EE477B87ED047B94
:1009900097ED047B9FED5C6B27EE067B9FED566B1E
:1009A00027EE067B87ED187B5D4B93ED1A7B97ED69
:1009B000186B36EE077B87ED027B97ED047B9FED8E
:1009C000546B27EE066B97ED027B36EE077B9FEDAF
:1009D000461BB0EE470B00F07DFBB0EE407B514B69
:1009E00083ED0A7B4E49D7E91223C1E900234C4924
:1009F000D7E91423C1E9062349494FF000024B4BC4
:100A0000C1E90C2397ED067B9FED436B37EE467BE8
:100A1000B0EE470B00F0E0FEB0EE407B404B83EDC4
:100A2000027B97ED067B9FED3C6B37EE467BB0EE8D
:100A3000470B00F095FBB0EE407B394B83ED087B14
:100A400037494FF00002394BC1E90E2397ED067B81
:100A50009FED316B37EE067BB0EE470B00F0BCFE2E
:100A6000B0EE407B2E4B83ED047B97ED067B9FED34
:100A70002A6B37EE067BB0EE470B00F071FBB0EE51
:100A8000407B274B83ED0A7B25494FF00002274B23
:100A9000C1E91023234BD3E908232149C1E91223DB
:100AA000204BD3E90A231E49C1E914231C494FF006
:100AB00000024FF00003C1E916234FF000024FF08F
:100AC0000003C7E914234FF000024FF00003C7E909
:100AD00012234FF000024FF00003C7E91023002358
:100AE000FB6370E0AFF30080000000000000000036
:100AF0001F1E69EC8BEB92402D431CEBE2361A3F34
:100B000043034FCB32262540FE8D22FEE13897402D
:100B1000F9805BF2EE46284065732D3852C10040E3
:100B20008000002038010020080100200000F03F74
:100B30004F4AFB6B0933DB001344D3E900234C49D4
:100B4000C1E91C23FA6B13465B001344484ADB00DF
:100B5000134493ED006B464B93ED1C7B26EE077B15
:100B600097ED146B36EE077B87ED147BFA6B13461B
:100B70005B00134401333E4ADB00134493ED006BEA
:100B80003B4B93ED1C7B26EE077B97ED126B36EE0D
:100B9000077B87ED127BFA6B13465B00134402332D
:100BA000334ADB00134493ED006B314B93ED1C7B18
:100BB00026EE077B97ED106B36EE077B87ED107BFB
:100BC000FB6B0133FB63FB6B022BB1DD2949D7E9DA
:100BD0001423C1E900232749D7E91223C1E90223DD
:100BE0002449D7E91023C1E904239FED1F6B97ED3A
:100BF0000C7B36EE477B1F4B83ED0E7B97ED166B20
:100C000097ED0A7B36EE077B194B83ED187B97ED4A
:100C1000186B97ED027B36EE077B154B83ED1A7B45
:100C20001449D7E90623C1E906231149D7E90A2364
:100C3000C1E91E230E49D7E90223C1E920230D494A
:100C4000D7E90423C1E90C230A49D7E90C23C1E9F8
:100C500012230849D7E90823C1E9102300BF6837E8
:100C6000BD46BDEC028B80BD00000000000000000E
:100C7000800000203801002080B400AF00BFBD46D6
:100C80005DF8047B704780B400AF00BFBD465DF8DF
:100C9000047B704780B500AF0F4B1B780E4A0121D3
:100CA0001170002B0AD00D4B01221A600A4B1B78E1
:100CB00083F00103DAB2084B1A700CE062B600BF91
:100CC000FFF7DEFC72B600BF034B1B7883F0010315
:100CD000DAB2014B1A7080BD8C010020880100201F
:100CE00080B584B000AF78603960154BFB60154B60
:100CF000BB60154B00221A70144B00221A7000F0D2
:100D000027F8FFF7B9FF72B600BF97ED030A00F0AE
:100D10003BF90E4B01221A7062B600BF62B600BFEB
:100D200000BF0A4B1B78DBB2002BFAD1FFF7ABFFF9
:100D300072B600BF002318461037BD4680BD00BF05
:100D400017B751390000C8418D0100208E010020E5
:100D500080B400AF034B044A1A6000BFBD465DF883
:100D6000047B70470000002040787D0180B400AF14
:100D7000094B0A4A9A60084BD3F88830064A43F474
:100D80007003C2F88830064B064A1A6000BFBD46A1
:100D90005DF8047B704700BF00ED00E0000000003C
:100DA0000000002040787D0180B584B000AFFFF7DF
:100DB000DDFF1F4BFB6019E00023BB600EE0FB680A
:100DC0001A68BB689B001A44FB685968BB689B00A3
:100DD0000B4412681A60BB680133BB60FB689B68F8
:100DE000BA689A42EBD3FB680C33FB60FB68114A8C
:100DF0009342E1D3104B7B6014E000233B6009E099
:100E00007B681A683B689B00134400221A603B68A9
:100E100001333B607B685B683A689A42F0D37B6839
:100E200008337B607B68054A9342E6D3FFF732FBC9
:100E3000D4250000E0250000E0250000E0250000AA
:100E400080B400AF00BFFDE780B582B000AF78602E
:100E5000396001F081FA034616221A604FF0FF3321
:100E600018460837BD4680BD80B582B000AF7860B7
:100E70004FF0FF317868FFF7E7FF00BFFDE780B470
:100E800000AF00BFFDE7000080B483B000AF0346B1
:100E90003960FB7197F90730002B0ADB3B68DAB247
:100EA0000C4997F907305201D2B20B4483F8002362
:100EB0000AE03B68DAB20849FB7903F00F03043B10
:100EC0005201D2B20B441A7600BF0C37BD465DF812
:100ED000047B704700E100E000ED00E080B582B0E7
:100EE00000AF78607B68013BB3F1807F01D30123C1
:100EF0000FE00A4A7B68013B536007214FF0FF3047
:100F0000FFF7C2FF054B00229A60044B07221A60CC
:100F1000002318460837BD4680BD00BF10E000E042
:100F200080B500AFBFF34F8F00BFBFF36F8F00BF1F
:100F30000B4B1A680B4B1B689A4202D3084B0022DA
:100F40001A60074B1B685A1C05490A60002B05D123
:100F500072B600BFFFF79EFE62B600BF00BF80BD45
:100F6000900100209401002080B400AF054B5B6825
:100F7000044A43F08053536000BFBD465DF8047BD4
:100F8000704700BF00ED00E080B584B000AF87ED92
:100F9000010A234B1B6807EE903AB8EE677AD7ED4B
:100FA000017A67EE277AFCEEE77A17EE903AFB605B
:100FB000FB68B3F1807F18D3FB6807EE903AB8EE78
:100FC000677ADFED186AC7EE267AFCEEE77A17EE4D
:100FD000903A0133144A1360134B1B68FA68B2FB52
:100FE000F3F31846FFF77AFF05E00F4B00221A6073
:100FF000F868FFF773FF0D4B00221A600C4A0D4B87
:101000001A6007216FF00400FFF73EFF07216FF021
:101010000100FFF739FF00BF1037BD4680BD00BF9C
:1010200000000020FFFF7F4B940100209001002072
:10103000210F000098010020EFF3008001B5EFF3CD
:10104000118003B41EF0100F08BFB0EE400A0A482A
:10105000006803B488B004A006904FF08070079039
:101060006FF006008646704703BC8047BFF36F8F62
:1010700000DFFEE700BF0000980100201EF0100F07
:1010800008BFB0EE400A1EF0040F0CBFEFF308805B
:10109000EFF30980816911F8020C10B101280DD01D
:1010A0000BE01EF0100F0CBF1AB008B003BC80F3A9
:1010B000118803BC80F300880847FEE74EF6145100
:1010C000CEF200010A6842F001020A607047F4E7BC
:1010D00000BF00BF08B52DED048BB0EE409BB0EE15
:1010E000418B00F06DF920B9B0EE480BBDEC048BDC
:1010F00008BDB0EE480B00F063F920B1B4EEC89B18
:10110000F1EE10FAF0DDB0EE490BBDEC048B08BD3A
:1011100008B52DED048BB0EE409BB0EE418B00F096
:101120009BFBB4EE489BF1EE10FA06D69FED0A9BAE
:10113000B4EE498BF1EE10FA02D0BDEC048B08BD81
:1011400001F00AF989EE090BBDEC048B2123036041
:1011500008BD00BFAFF300800000000000000000E9
:10116000B0EE407B17EE903A1B4A23F000439342C7
:101170001AD91A4A934202D930EE400B704700B593
:1011800085B0684600F0D8F900F0030001289DED15
:10119000021B9DED000B10D0022809D090B900F081
:1011A0001FF805B05DF804FB9FED091B00F018B8AF
:1011B00000F016F8B1EE400BF3E700F0A9F8B1EE3D
:1011C000400BEEE7012000F0A3F8EAE7AFF3008060
:1011D0000000000000000000FB21E93FFFFFEF7F5F
:1011E00010EE903A23F00043B3F1795F2DED028BBE
:1011F0002ED2FDEEC07B17EE903A002B65D020EE8C
:10120000004B9FED358B9FED362B9FED373BA4EECA
:10121000082B9FED375BA4EE023B9FED376BA4EEEE
:10122000035B9FED377BA4EE056BA4EE067B24EEFB
:10123000077B21EE401BB6EE006BA4EE071BB7EE5A
:10124000000B94EE061BBDEC028B30EE410B704799
:101250009FED218B20EE004B9FED212B9FED223B3C
:10126000A4EE082B9FED225BA2EE043B9FED226BC8
:10127000A3EE045B9FED227BA5EE046B224AA6EE53
:10128000047B934227EE047BD3D9204A934217D89C
:10129000B7EE006B0020A3F5001141EC150B36EE04
:1012A000456B21EE401BB6EE003BA4EE071B94EE0F
:1012B000035BBDEC028B35EE415B36EE450B7047B0
:1012C000B6EE076BB5EE025BEBE7B7EE000BBDECDD
:1012D000028B7047AFF30080D43888BEE9FAA8BD0E
:1012E000C4B1B4BD9EEE213EAD529C804F7E92BEF5
:1012F0009015CB19A001FA3E7751C1166CC156BFAB
:101300004C5555555555A53F3233D33F0000E93F65
:1013100010EE903A23F00043B3F1795F04D2FDEE72
:10132000C07B17EE903A5BB320EE007B9FED162B4F
:101330009FED173B9FED184BA7EE023B9FED185B0F
:10134000A3EE074B9FED186BA4EE075BA5EE076BB2
:1013500020EE075B30B99FED164BA7EE064BA4EECF
:10136000050B70479FED144B26EE456BB6EE003B28
:10137000A1EE036B96EE071BA5EE041B30EE410BAE
:10138000704700BFAFF300807CD5CF5A3AD9E53D16
:10139000EB9C2B8AE6E55ABE7DFEB157E31DC73EA6
:1013A000D561C119A0012ABFA6F810111111813F02
:1013B000495555555555C5BF495555555555C53FC1
:1013C00053EC102B002B10460BD0B3F1004F08D07C
:1013D000104923F00042A2F5801C8C4506D8042059
:1013E000704700280CBF022003207047B3F5801F10
:1013F0000DD303F10043B3F5801F08D3064B9A4287
:1014000001D000207047B0FA80F0400970470320F7
:10141000704700BFFFFFDF7F0000F07F000000008B
:1014200000B583B08DED000B01990098C1F30A520D
:10143000A2F2FF33132B33DC002B23DB3C4A1A418F
:1014400001EA020E5EEA000E8C462ED09FED367B3E
:101450009DED006B36EE077BB5EEC07BF1EE10FA2A
:1014600009DD002904DA4FF4801141FA03F39C44AA
:101470002CEA020100200B46024643EC102B03B07D
:101480005DF804FB9FED287B30EE077BB5EEC07B5B
:10149000F1EE10FAEFDD00292ADB00200146EAE731
:1014A000332B07DDB3F5806F1DD09DED000B03B02E
:1014B0005DF804FBA2F213424FF0FF3C2CFA02F25B
:1014C0000242F2D09FED187B9DED006B36EE077B5C
:1014D000B5EEC07BF1EE10FACDDD002984460EDBBF
:1014E0002CEA0200C7E79DED007B37EE070BDEE735
:1014F00021F0004108430FD14FF00041BBE7142B0E
:101500000DD04FF0010EC3F134030EFA03F39C44E7
:10151000844538BF7144E3E706490020ABE7013159
:10152000DEE700BFAFF300809C7500883CE4377EA7
:10153000FFFF0F000000F0BF70B553EC102B9E4969
:1015400023F000458D4288B0044669D99B498D42FD
:101550001E461BD8002B9FED887B40F3E98030EEC0
:10156000477BA1F51B21A1F5F0618D4267D09FED6E
:10157000845B37EE456B37EE467B37EE457B84ED7B
:10158000006B84ED027B012008B070BD8C498D4258
:1015900062D98C498D424BD810462A15A2F21642C8
:1015A000A5EB025141EC170B9FED774BBDEEC75BEE
:1015B00008A8B8EEC55B37EE457B27EE047BBDEE91
:1015C000C76B8DED025BB8EEC66B37EE467B8DEDDB
:1015D000046B27EE047B8DED067B032130ED027B4F
:1015E000B5EE407BF1EE10FA0B4601F1FF31F5D07C
:1015F000754901910221009102A8214600F0B0FA3C
:10160000002EC1DA94ED006B94ED027BB1EE466BD7
:10161000B1EE477B84ED006B84ED027B4042B3E783
:101620000020002184ED000BC4E902010020ABE79B
:1016300030EE407B80ED027B80ED007BF6E79FED96
:10164000545B9FED556B37EE467B37EE456B37EEBF
:10165000467B37EE457B92E700F0BEFDB6EE007BA1
:101660009FED4F5BA0EE057BFDEEC77B9FED423B00
:1016700017EE900A9FED426B1F28B8EEE75BB1EEC4
:10168000454BA5EE430B25EE067B1CDC4F4B421E63
:1016900053F82230AB4216D030EE476B30EE460B9B
:1016A000002E30EE470B84ED006B84ED020BBFF68D
:1016B0006BAFB1EE466BB1EE400B84ED006B84ED89
:1016C000020B404260E730EE476B16EE903AC3F3F0
:1016D0000A53C3EB1553102B4FEA2552DEDDB0EE53
:1016E000403B9FED2D6B9FED2A2BA4EE063B30EE89
:1016F000437BA4EE067B95EE027B33EE476B16EE42
:10170000903AC3F30A53D21A312A0EDDB0EE430BDE
:101710009FED256B9FED262BA4EE060B33EE407B51
:10172000A4EE067B95EE027BB6E7B0EE430BB5E781
:10173000274930EE077B8D420ED09FED115B37EECF
:10174000056B37EE467B37EE057B84ED006B84ED51
:10175000027B4FF0FF3017E79FED0D5B9FED0E6BA7
:1017600037EE067B37EE056B37EE467B37EE057BB3
:10177000EBE700BFAFF3008000004054FB21F93FCE
:101780003163621A61B4D03D000000000000704176
:101790007370032E8A19A33B0000601A61B4D03D18
:1017A00083C8C96D305FE43F0000002E8A19A33B57
:1017B000C14920259A837B39FB21E93F7BD902402F
:1017C000FB213941FFFFEF7F5C240000DC23000098
:1017D000FB21F93F00000000B0EE407B17EE903A8D
:1017E0001B4A23F0004393421BD91A4A934202D961
:1017F00030EE400B704700B585B06846FFF79CFEA1
:1018000000F0030001289DED021B9DED000B13D09D
:1018100002280BD098B90120FFF77AFD05B05DF8DA
:1018200004FB9FED091B0020FFF772BD0120FFF7AD
:101830006FFDB1EE400BF1E7FFF7D2FCEEE7FFF7EB
:10184000CFFCB1EE400BE9E7000000000000000013
:10185000FB21E93FFFFFEF7FF0B585B08DED001B69
:10186000DDE9005E2EF0004055EA00038DED020B2D
:1018700045D0039BB44A23F0004797423FD8C5F1B7
:10188000000CB24E4CEA050240EAD272B24236D89F
:101890008742029903F000443BDC7FDB8D427DD818
:1018A00000F0B180334243D1AFBB00290E4640F374
:1018B0002C81A74A7600002E02F1FF32FADCA34EFB
:1018C0000EEA0606002E40F09180002840F0E080ED
:1018D000002DAC46D8BFA6F2134668DC9D4BA3EBA7
:1018E000020CBCF11F0F00F3F18002F21E4321FA3B
:1018F00003F307FA0CF73B4301FA0CF167E09DEDA7
:10190000027B9DED006B27EE067B87EE070B05B093
:10191000F0BD33420CD18F4AFE027600002E02F158
:10192000FF32CCDD7600002E02F1FF32F5DCC6E797
:10193000864E3A150EEA0606A2F2FF328EB3001565
:10194000C3F31303A0F2FF3643F48013A1EB050C9D
:10195000CEF3130E4EF4801E921B0CD162E00138C0
:1019600057D4A1EB050C4FEADC73013A03EB4003BB
:101970004FEA4C0154D0A942A3EB0E00EFD300284C
:10198000A1EB050C45DB50EA0C03ECD1724BE40FE4
:1019900003EBC40393ED000B05B0F0BD9DED020B0E
:1019A000B5E7002874D1002DAC4640F3B980684EED
:1019B0004FEA4C0CBCF1000F06F1FF36F8DCDFF803
:1019C00094C162458ADBC3F3130343F48013614F70
:1019D000BF1B1F2F4DDC06F21E4E25FA0EFEB8402F
:1019E000BD404EEA000EA1EB050CB5E70015A0F2D4
:1019F000FF365848801A1F2878DD584B9B1A01FA89
:101A000003F30021A4E7544B03EB147393ED000B95
:101A10007DE7C80F013A00EB43034FEA4101AAD129
:101A2000A1EB050CA3EB0E028D4288BF02F1FF3241
:101A3000002ABCBF8C461A4652EA0C0307D1A5E720
:101A40004FEADC7303EB42024FEA4C0C013EB2F565
:101A5000801FF5DB3F4B9E4225DBA2F5801242EA58
:101A6000040106F2FF3641EA0653624643EC102BAE
:101A70004DE73A48921BA0EB060E05FA0EFE18BF82
:101A800000257FF478AFA3EB0E028C46D0E7304AF6
:101A9000304E4FEAC02C4FEA4C0CBCF1000F06F15F
:101AA000FF36F8DC8BE79B1B142B15DC06F21E417E
:101AB0002CFA03FC02FA01F142FA03F341EA0C01A9
:101AC0001C4323460A4643EC102B20E7234B9B1A6A
:101AD00001FA03F300217AE71F2B11DC06F21E4105
:101AE0002CFA03F302FA01F11943EAE702F21E436A
:101AF00021FA03F387403B438140A1EB050C27E724
:101B00001649891B42FA01F1DBE7104A0EEA02028C
:101B10007AB10015CB0A0E4AA0F2FF364905ECE770
:101B2000C3F313030A4E43F480134FF00B0E152733
:101B300053E70028ABD1002D054AAC463FF737AF3D
:101B40004FF0150C1646D0E6FFFFEF7F0000F07F48
:101B5000EDFBFFFF02FCFFFF68250000E2FBFFFF3B
:101B60002DE9F04F2DED088BADF5137D1C46039349
:101B70008146A34BA49812F1140F53F8205004F19E
:101B8000FF37C0F248829F48D31E80FB0340DB171B
:101B9000C3EBA00302930133A3EB8303DB001A44DE
:101BA000029BEC19A3EB07031CD401349FED8E6B51
:101BB000A59E1C441AA894460AE056F8232007EE76
:101BC000902A0133B8EEE77BA342A0EC027B08D059
:101BD000002BF2DAB0EE467B0133A342A0EC027B8D
:101BE000F6D16246002DC0F2C482039B1AA800EB16
:101BF000C3060DF5D47C4FEAC3083C4605EB030E43
:101C000009EBC300002F9FED787B09DBB2464B4602
:101C1000B3EC025B3AED026B8342A5EE067BF7D193
:101C200001347445ACEC027B06F10806EAD10DF1F3
:101C3000180A0AEB85039FED6E9B9FED6F8B043BAB
:101C400009EB080404930AEB8508AB466AAE0095DD
:101C50001046059192AB03EBCB03BBF1000F13EDE4
:101C6000280B4FEACB0315DD3344524620EE097BA7
:101C700033ED025BB0EE406BBDEEC77BB342B8EE16
:101C8000C77BA7EE486BBDEEC66B37EE050BA2EC2B
:101C9000016AEBD1019000F0A7FAB4EE007BB0EE40
:101CA00040AB20EE070BFFF7BBFBB2EE007B0198C9
:101CB000A0EE47ABBDEECABB0028B8EECB7B3AEE38
:101CC00047AB6EDD0BF1FF3EC0F118035AF82E2032
:101CD00042FA03FC0CFA03F3D21AC0F117011BEE0F
:101CE000103A42FA01F56344002D4AF82E200BEE1B
:101CF000103A00F35E81B5EE40ABF1EE10FA40F021
:101D0000B180009B9B450BDD0AEB8B03002253F84F
:101D1000041D434542EA0102F9D1002A40F06381E3
:101D2000009B013B5AF82330002B40F05781049B65
:101D3000012153F8042D0131002AFAD00BF10103DF
:101D400059449C46029D039A03EB050E0EF1804E0A
:101D5000A59D5A440EF1FF3E06EBC30B1AAB05EBF3
:101D60008E0E03EBC2059EED017AB8EEC77B002F05
:101D7000A5EC027B0EF1040E9FED1B7B09DB2A46CE
:101D80004B46B3EC025B32ED026BA342A5EE067B41
:101D9000F7D10CF1010C8C45ABEC027BE3DD8B46FB
:101DA00058E740F0FD800BF1FF335AF82350ED1552
:101DB000002DA0DD1BEE103ABBF1000F03F1010373
:101DC0000BEE103A40F3D98152464FF0000C52F816
:101DD000041B002900F0DE80C1F1807142F8041C70
:101DE0006FF07F4114E000BF000000000000000021
:101DF000000000000000703E000000000000704184
:101E0000B8250000ABAAAA2A1368CB1A42F8043BF3
:101E10000CF1010CE345F7DC012100280CDD012861
:101E200000F0D380022807D10BF1FF325AF822309C
:101E3000C3F315034AF82230022D7FF45CAFB7EEEE
:101E4000000B30EE4AAB00293FF455AF019000F093
:101E5000CBF93AEE40ABB5EE40ABF1EE10FA01989B
:101E60003FF44FAF02460599B0EE4A0B404202954F
:101E70000191009D009200F0B7F99FEDC95BB0EEB3
:101E8000407BB4EEC50BF1EE10FADDE90021029BB8
:101E9000C0F238819FEDC46B20EE066BBDEEC66BC1
:101EA0000BF10104B8EEC64BA4EE457BBDEEC77B3B
:101EB000183217EE100A4AF82B0016EE100A4AF8EC
:101EC0002400B7EE000B1046CDE9003100F08CF98C
:101ED000002CDDE90031C0F23F819FEDB35B661C51
:101EE0006AAF0AEB8602F00007EBC60632ED017A14
:101EF0005245B8EEC77B27EE007B20EE050B26EDA2
:101F0000027BF3D16AAE0DF58478A0F10802B71810
:101F1000C646A44600269A46002D9FEDA57B0EDB03
:101F2000A54BB946002201E0B24208DCB3EC025BEB
:101F3000B9EC026B01329542A5EE067BF4DA0CF1A6
:101F4000FF3CBCF1FF3FAEEC027B06F10106A7F1BE
:101F50000807E1D1A49A022A534600F38780002A99
:101F600070DC0DD19FED927B404430ED026B40451B
:101F700037EE067BF9D1002B40F0EB8081ED007B42
:101F80001BEE103A03F007000DF5137DBDEC088B36
:101F9000BDE8F08F0CF1010CE3453FF718AF3CE7CB
:101FA000B6EE007BB4EEC7ABF1EE10FA38DA0025DE
:101FB000A1E60133BBF1000F0BEE103AD8BF0021B0
:101FC0003FF702AF01287FF42DAF0BF1FF325AF833
:101FD0002230C3F316034AF822302DE70BF1010338
:101FE0009C461946AEE60BF1FF34A0F118025AF8F0
:101FF000240005992B46009D00287FF462AF0BF169
:10200000804001380AEB800050F8046D013C183A1A
:10201000002EF9D055E700206FF017030290BEE5BF
:102020001BEE103ABBF1000F03F101030BEE103A67
:10203000C8BF02253FF7C8AEB7EE007B37EE4AAB0C
:10204000022558E69FED5A6B404430ED027B404537
:1020500036EE076BF9D137EE467B002B67D0B1EE39
:10206000466B81ED006B002C64D16DE0A49A032ACD
:1020700086D1002C00F08F8008EBC40696ED006B33
:10208000E5003246304630ED027BB0EE465B40451F
:1020900036EE076B37EE467B80ED006B37EE057B47
:1020A00080ED027BEFD1012C75D096ED006B08F12D
:1020B000080032ED027BB0EE465B904236EE076BD5
:1020C00037EE467B82ED006B37EE057B82ED027BBF
:1020D000EFD19FED377B05F10802424408F1100073
:1020E00032ED026B904237EE067BF9D198ED005B42
:1020F00098ED026B73B981ED005B81ED026B81EDB0
:10210000047B3DE7BDEEC07B5C4617EE100A4AF843
:102110002B00D6E6B1EE455BB1EE466BB1EE477BE8
:1021200081ED005B81ED026B81ED047B28E781EDA1
:10213000006B5CB144A80122B0EC026B0132944206
:1021400037EE067BF8DA0BB1B1EE477B81ED027B0F
:1021500016E7B1EE477B11E7A49A022A15DC002AA4
:102160002CDC7FF40DAF9FED127B002B3FF406AF0C
:10217000EFE7039B4FEAC30859E5022D7FF4BBAD9F
:10218000B7EE007B37EE4AABB5E5A49A032A7FF49D
:10219000F7AE0DF584789FED067BA7E7AFF30080DF
:1021A0000000000000007041000000000000703ED0
:1021B0000000000000000000782500009DED427B3B
:1021C0002BB100224FF00043C1E90023BCE70022FD
:1021D0000023C1E90023B9E751EC100B024621F0BE
:1021E000004343EC102B704753EC102B10B4C3F397
:1021F0000A54194664BB23F00041114325D09FEDDA
:102200002E7B394920EE077B884253EC172B3FDBAE
:10221000C3F30A541946363C4CF2503C604520DC6E
:10222000204440F2FE74A0421BDC002827DC10F1A1
:10223000350F34DB36306FF31E519FED217B41EAC1
:10224000005343EC102B20EE070B5DF8044B704756
:1022500040F2FF7C6445DFD130EE000B5DF8044BAB
:1022600070479FED197B9FED1A5BB0EE470B002B7B
:102270005DF8044B27FE057B27EE000B70476FF3DC
:102280001E5141EA005343EC102B5DF8044B70479C
:102290009FED110B5DF8044B27EE000B70479FED8F
:1022A0000E7B9FED0F5BB0EE470B002B27FE057BEF
:1022B00027EE000BC9E700BF0000000000005043FC
:1022C000000000000000903C9C7500883CE4377ED4
:1022D0009C7500883CE437FE59F3F8C21F6EA501D7
:1022E00059F3F8C21F6EA581B03CFFFF08B5064B3D
:1022F000044613B10021AFF30080044B1B6803B107
:1023000098472046FEF7B0FD00000000D4020020F0
:1023100070B50D4D0D4C641BA4100026A64209D1CA
:102320000B4D0C4C00F026F8641BA4100026A642AE
:1023300005D170BD55F8043B98470136EEE755F8D6
:10234000043B98470136F2E7540000205400002077
:102350005400002058000020014B1868704700BF4F
:102360000400002002440346934200D1704703F862
:10237000011BF9E7F8B500BFF8BC08BC9E467047E2
:10238000F8B500BFF8BC08BC9E46704700000000CE
:10239000000000000000F03F00000000000000000E
:1023A000000000000000E03F000000000000E0BF6F
:1023B000AA4C58E87AB6EB3F000000000000E03F6E
:1023C000000000000000E0BFAA4C58E87AB6EBBF5E
:1023D000000000000000E03F00000100FB21F93F89
:1023E000FB2109407CD91240FB2119407A6A1F4029
:1023F0007CD92240BBFD2540FB2129403A462C4098
:102400007A6A2F405C4731407CD932409C6B344023
:10241000BBFD3540DB8F3740FB2139401BB43A40D0
:102420003A463C405AD83D407A6A3F404C7E404054
:102430005C4741406C1042407CD942408CA24340F2
:102440009C6B4440AC344540BBFD4540CBC6464048
:10245000DB8F4740EB584840FB21494083F9A200FD
:10246000444E6E00FC291500D1572700DD34F500DD
:1024700062DBC0003C999500419043006351FE002F
:10248000BBDEAB00B761C5003A6E2400D24D4200FE
:102490004906E00009EA2E001C92D100EB1DFE0067
:1024A00029B11C00E83EA700F535820044BB2E0090
:1024B0009CE98400B4267000417E5F00D69139000B
:1024C000538339009CF439008B5F840028F9BD00E8
:1024D000F81F3B00DEFF97000F980500112FEF005B
:1024E0000A5A8B006D1F6D00CF7E360009CB270086
:1024F000464FB7009E663F002DEA5F00BA27750081
:10250000E5EBC7003D7BF100F739070092528A00E6
:10251000FB6BEA001FB15F00085D8D0030035600C1
:102520007BFC4600F0AB6B0020BCCF0036F49A0079
:10253000E3A91D005E619100081BE6008599650016
:10254000A0145F008D40680080D8FF0027734D0005
:1025500006063100CA561500C9A873007BE2600068
:102560006B8CC000000000000000000000000000B4
:10257000000000000000008000000040FB21F93F47
:10258000000000002D44743E000000809846F83C96
:102590000000006051CC783B00000080831BF039C4
:1025A0000000004020257A38000000802282E336B7
:1025B000000000001DF36935020000000300000068
:0C25C00004000000060000000000000005
:0825CC00C0DEFF7F01000000EA
:0C25D400E02500000000002017000000BF
:1025E00040787D0108000020000000009C010020D0
:1025F000040200206C020020000000000000000027
:1026000000000000000000000000000000000000CA
:1026100000000000000000000000000000000000BA
:1026200000000000000000000000000000000000AA
:0C263000000000006904000041040000EC
:0400000300000DA943
:00000001FF
